:020000040000FA
:1000000038020020C10000009906000079060000B7
:10001000FFFFFFFFFFFFFFFFFFFFFFFFFFFFFFFFF0
:10002000FFFFFFFFFFFFFFFFFFFFFFFF9F06000037
:10003000FFFFFFFFFFFFFFFF9D060000A10600007E
:1000400035010000350100003501000035010000D8
:1000500035010000350100003501000035010000C8
:1000600035010000350100003501000035010000B8
:1000700035010000350100003501000035010000A8
:100080003501000035010000350100003501000098
:100090003501000035010000350100003501000088
:1000A0003501000035010000350100003501000078
:1000B0003501000035010000350100009B060000FD
:1000C0001D4880471D4880471D4800471D4801695D
:1000D000002908D14169002905D18169002902D18F
:1000E000C169002909D01848C1680901090D002912
:1000F0000ED005290CD006290AD0BFF34F8F134824
:100100001349016013491248C860BFF34F8FFEE7DF
:100110000E4801680E48884200D070470E480F49CB
:1001200001600A480E4901607047FEE7FEE7FEE7FE
:10013000FEE7FEE7FEE70000CD000000B10600008C
:100140006501000000030840800108400000002015
:100150000400FA0500ED00E0008108400100000005
:10016000000000000348854600F05CF800480047A6
:10017000C10900003802002003460B439B0703D04F
:1001800009E008C9121F08C0042AFAD203E00B785C
:100190000370401C491C521EF9D2704730B5054609
:1001A0002A460B4610781C78521C5B1C002801D094
:1001B000A042F7D0002C03D0002802D06D1CEFE73E
:1001C000284630BD421C0178401C0029FBD1801A12
:1001D000704703460A780270401C491C002AF9D176
:1001E0001846704770B50446002903D0002020222D
:1001F000012310E0002801D00020C043C046C046C3
:100200000DE02546D5408D4205D30D469540641B33
:100210001D46954040191546521E002DF1DC214621
:1002200070BD0000064C0125064E05E0E36807CCD2
:100230002B430C3C98471034B442F7D3FFF796FF9A
:100240004C3100006C310000F0B58EB0C0005C4B4A
:10025000C4180F2318020790180308901804099077
:1002600018050A9018060B9018070C900E060D94AE
:1002700052D00120084045422F461F408807059074
:1002800000D5F0374807049001D5079807430807C1
:10029000039001D508980743C806029001D5099834
:1002A00007438806019001D50A9807434806009045
:1002B00003D530460B9E374306460696002E01D5E1
:1002C0000C9E37430D9C2468BC4317010598C61744
:1002D0003E401540354316020498C71737402F4358
:1002E00015030398C6172E403E4315040298C717FE
:1002F0002F40374315050198C6172E403E4315067B
:100300000098C017284030431507069EF6172E4068
:10031000064326430D9C26600E04300E41D0C805CE
:10032000C7173B408805069000D5F0334805059077
:1003300001D5079803430805079001D508980343A2
:10034000C80408902FD4880431D4490433D4002E33
:1003500001D50C9D2B4365689D431301069CE41752
:100360001C40174027431302059CE4171C403C43E4
:100370001303079FFF171F4027431304089CE4172C
:100380001C403C431305C017184020431306C917EF
:10039000194001431007F21702400A432A430D98FF
:1003A00042600EB0F0BD099803438804CDD50A9D84
:1003B0002B434904CBD50B9D2B43002EC9D4CAE750
:1003C0002020024070B541098900234BC9180A6AF0
:1003D000D9691C46183C246807240C405D681946FE
:1003E00014390968890501D4002110E01968C90091
:1003F000CE0F1A49F140002D09D41D686D012D0F53
:1004000000D1102569431D686D02AD0FE940641EDF
:10041000062C09D87C4424796400A7440C03030506
:1004200005070A000D4906E0002104E00121C90387
:1004300001E07D2109021F2404400325A5402A4034
:10044000E2402E2800D1921C9868052800D3052090
:10045000C140D140084670BD1880084000127A00A3
:1004600070B50C4C2568002B01D0054300E0854396
:10047000A668E0682560002B01D00E4300E08E43A3
:10048000A660002B02D01043E06070BD9043E06096
:1004900070BDC04624800840002A03D002680A4389
:1004A0000260704702688A4302607047F0B500231B
:1004B0000E251C4603E0090A10352E2D5AD0CE0712
:1004C0000ED18E0716D44E071ED40E0726D4CE06A4
:1004D0002ED48E0635D44E063CD40E06EBD542E023
:1004E0002E460E3E0327B7403B431746B7403C43DA
:1004F0008E07E8D52E460C3E0327B7403B431746F0
:10050000B7403C434E07E0D52E460A3E0327B7408E
:100510003B431746B7403C430E07D8D52E46083E0E
:100520000327B7403B431746B7403C43CE06D0D5E0
:10053000AE1F0327B7403B431746B7403C438E06E8
:10054000C9D52E1F0327B7403B431746B7403C434E
:100550004E06C2D5AE1E0327B7403B431746B740F1
:100560003C430E06A7D50326AE4033431646AE40A5
:100570003443A0E7416999434161416921434161A5
:10058000F0BDB0B5846825468D43C368012A04D008
:100590008B43002A04D10C4303E00B432C4600E0BC
:1005A0002C468460C360B0BD70B582B00646684614
:1005B0000022828000922E498D5D012444550178ED
:1005C00021404378DB079B0F59188378DB075B0FCB
:1005D000C918C078C007000F08180199C907C90ECB
:1005E00040180004A1032346FFF73AFF0E48825D3E
:1005F00070001E490E5A28463146FFF725FEA80016
:100600001C490D586E62022228463146FFF7B9FF99
:10061000284631462246FFF749FF28463146224602
:10062000FFF73AFF02B070BDA420000041000F4A5E
:10063000515A0F4A105C80000E4A105841627047B0
:1006400041000A4A515A0A4A105C8000094A10586F
:10065000816270474100054A515A054A105C80008A
:10066000044A1058026A4A4002627047AA200000F9
:10067000A72000008C20000006480168002908D14E
:100680000168002905D10168002902D1016800290B
:10069000F3D070472C0000207047704770477047B8
:1006A00002480168491C01607047C04630000020C4
:1006B000F0B586B059481021059101605849C86AC3
:1006C000402203921043C86256480268272A08D085
:1006D0000268272A05D00268272A02D00268272A42
:1006E000F3D10324A0020A6A82430A620122D002E3
:1006F0000B6803430B604868000708D4486800078C
:1007000005D44868000702D448680007F3D5086894
:10071000049420430423029398430860086B072441
:10072000204003280BD0086B2040032807D0086B1B
:100730002040032803D0086B20400328EED13A4B19
:100740001868104306250195A84318600020009002
:10075000C86157020868B84308601302081F05689B
:100760001D4305600D680826B5430D6005683D43CF
:10077000056095020E682E430E604D686D0708D423
:100780004D686D0705D44D686D0702D44D686D073F
:10079000F3D5CD6A039EB543CD620F25ED054D61BE
:1007A00015074E692E434E6105689D430560086834
:1007B000384308604868800708D44868800705D433
:1007C0004868800702D448688007F3D5164D28682A
:1007D000049B1843029B984328600098C8610868EE
:1007E0001043019B98430860086B204001280BD000
:1007F000086B2040012807D0086B2040012803D057
:10080000086B20400128EFD128680599084328602B
:10081000100329680143296006B0F0BD0C8108402F
:100820000480084008A1064000020840F0B581B0ED
:1008300004460126B5072021284600F063F8012868
:1008400008D1284600F0AAF82169A2898854A08915
:10085000401CA0810D4F396825692846FFF79EFC92
:10086000002400280FD179682846FFF797FC00285C
:1008700009D1074801682846FFF790FC002801D0FD
:10088000344600E00224204601B0F0BD0C000020F8
:1008900008000020F0B583B00746007800282ED06D
:1008A000012005028607002401973F5D3046294656
:1008B00000F028F80028F9D03046394600F071F8E9
:1008C000641C019F3846FFF77DFC8442EDD33878E5
:1008D000002814D03C4600272D4EE05D02903046A3
:1008E000294600F00FF80028F9D03046029900F0B0
:1008F00058F87F1C2046FFF765FC8742EDD303B014
:10090000F0BDC04600690840411E884170470000A4
:10091000B0B50D460446406819490140E8880843CF
:10092000A98801432889084369890143616000203F
:1009300014498C420BDC012189078C4212D01549E5
:100940008C4211D014498C4215D1082011E00E4977
:100950008C420BD00D498C420AD0E5498C420AD119
:100960001A2006E0182004E01C2002E00A2000E023
:100970001E20FFF727FD2968FFF734FC6062B0BD39
:10098000FCE0FFFFFFFF0340002004400010044094
:10099000000004400010004000200040006880B2C9
:1009A00070470160704710238B40002A03D04168D4
:1009B00019434160704741689943416070470000A6
:1009C00082B0204C204601F035F8A06800258570E3
:1009D0005421019141704126067003272046394673
:1009E00000F036F8A06805221749FFF7C5FB20463E
:1009F000394600F02DF8A068C5714E218171532150
:100A00004171472101714321C1702B2181700199EE
:100A1000417006702046394600F01AF8A0681C2282
:100A20000A49FFF7A9FB2046394600F011F8204695
:100A300000F084F9204600F0A9FB204600F0D0FD2C
:100A4000C3E7C04618000020EA2000003031000053
:100A5000F0B587B00446002900D103210120060229
:100A60000422A34D0B4605940291180600D13AE1E9
:100A700004925B1EA268206800910393DBB2CB1A3C
:100A80009CA101F0B3F924682078002813D0002736
:100A90000694E45D28463146FFF734FF0028F9D07C
:100AA00028462146FFF77DFF7F1C069C2046FFF766
:100AB00089FB8742EDD30020059CA0810146226975
:100AC00089B25054A189491CA1818AB2632A18D8DD
:100AD000236900219954A289521CA28192B2632AEF
:100AE0000FD823699954A289521CA28192B2632A19
:100AF00007D823699954A189491CA1818AB2642A23
:100B0000DDD30027A781A068FFF7C4FE8348FFF765
:100B1000C1FE83490868606008686168401A7349CB
:100B200088420AD22046FFF781FE7D490A68616843
:100B3000511A6E4A9142F5D304902269206879498E
:100B400001F054F924682078002812D00694E45D5E
:100B500028463146FFF7D6FE0028F9D02846214620
:100B6000FFF71FFF7F1C069C2046FFF72BFB8742E9
:100B7000EDD30020059CA0810146226989B2505422
:100B8000A189491CA1818AB2632A18D8236900214E
:100B90009954A289521CA28192B2632A0FD8236968
:100BA0009954A289521CA28192B2632A07D8236960
:100BB0009954A189491CA1818AB2642ADDD30027F6
:100BC000A7812068049BD9B20429574A03D859B297
:100BD0008900564A5258564901F008F92068069093
:100BE0000078002815D0069CE45D28463146FFF7C2
:100BF00089FE0028F9D028462146FFF7D2FE7F1C47
:100C0000069C2046FFF7DEFA8742EDD3059C20685C
:100C100000E006980C224749FFF7AEFA24682078D6
:100C2000002813D000270694E45D28463146FFF7DC
:100C300069FE0028F9D028462146FFF7B2FE7F1C46
:100C4000069C2046FFF7BEFA8742EDD33A4800BF24
:100C500000BF00BF00BF00BF00BF00BF00BF00BF9C
:100C600000BF00BF00BF00BF00BF00BF00BF00BF8C
:100C700000BF00BF00BF00BF00BF00BF00BF00BF7C
:100C800000BF00BF00BF00BF00BF00BF00BF00BF6C
:100C900000BF00BF00BF00BF00BF00BF00BF00BF5C
:100CA00000BF00BF00BF00BF00BF00BF00BF00BF4C
:100CB00000BF00BF00BF00BF00BF00BF00BF00BF3C
:100CC00000BF00BF00BF00BF00BF00BF00BF00BF2C
:100CD00000BF4238BBD1049A1006059C0299039BC1
:100CE00000D0C2E60022D0B207B0F0BDD1070000AC
:100CF000000004400A3D3D3D2053454E44494E47C7
:100D0000203C25733E207C20415454454D505420B6
:100D100025752F2575203D3D3D0A0000BC200000B3
:100D200030000020B02000001021000078200000DA
:100D3000D6200000802C0000E08DF901F0B585B0D0
:100D400005468068FDA11822FFF716FA2868AA68F0
:100D5000F94901F04BF801200190040204952E6836
:100D60003078FC4D002813D000270396F65D284606
:100D70002146FFF7C7FD0028F9D028463146FFF786
:100D800010FE7F1C039E3046FFF71CFA8742EDD30E
:100D90000020049EB0810146326989B25054B18965
:100DA000491CB1818AB2632A18D833690021995449
:100DB000B289521CB28192B2632A0FD83369995416
:100DC000B289521CB28192B2632A07D8336999540E
:100DD000B189491CB1818AB2642ADDD30027B78169
:100DE000B068FFF757FDDC48FFF754FDDB490868A2
:100DF000706008687168401AD94EB0420ED20397ED
:100E0000049F3846FFF712FDD4490A687968511AE1
:100E1000B142F6D30290049E039F02E004200290A8
:100E2000049E31693068FFF7D4F9366830780028BD
:100E300012D00396F65D28462146FFF763FD002891
:100E4000F9D028463146FFF7ACFD7F1C039E3046A3
:100E5000FFF7B8F98742EDD30020049EB081014628
:100E6000326989B25054B189491CB1818AB2632A6E
:100E700018D8336900219954B289521CB28192B2B8
:100E8000632A0FD833699954B289521CB28192B245
:100E9000632A07D833699954B189491CB1818AB250
:100EA000642ADDD300200090B081B068AD49AE4A1D
:100EB000FFF762F9B068FFF7EDFCA748FFF7EAFC1F
:100EC000AA4800BF00BF00BF00BF00BF00BF00BFF7
:100ED00000BF00BF00BF00BF00BF00BF00BF00BF1A
:100EE00000BF00BF00BF00BF00BF00BF00BF00BF0A
:100EF00000BF00BF00BF00BF00BF00BF00BF00BFFA
:100F000000BF00BF00BF00BF00BF00BF00BF00BFE9
:100F100000BF00BF00BF00BF00BF00BF00BF00BFD9
:100F200000BF00BF00BF00BF00BF00BF00BF00BFC9
:100F300000BF00BF00BF00BF00BF00BF00BF00BFB9
:100F400000BF00BF00BF4238BBD1019886073046C2
:100F50002146FFF7D7FC0028F9D01A213046FFF7C9
:100F600020FD7E4B1868049E706018687168401AF6
:100F70007F4FB8420BD230461E46FFF757FC334630
:100F8000049E1A687168511AB942F4D3029032690A
:100F90003068784900F02AFF3668307800280098D9
:100FA00014D003960746365C28462146FFF7AAFC74
:100FB0000028F9D028463146FFF7F3FC7F1C039E3A
:100FC0003046FFF7FFF887423846EBD30020049EF7
:100FD000B0810146326989B25054B189491CB1814E
:100FE0008AB2632A18D8336900219954B289521CF5
:100FF000B28192B2632A0FD833699954B289521CD4
:10100000B28192B2632A07D833699954B189491CD5
:10101000B1818AB2642ADDD30027B7813068029992
:10102000042904D849B28900544A525800E0524A6F
:10103000534900F0DBFE306803900078002815D09B
:10104000039EF65D28462146FFF75CFC0028F9D098
:1010500028463146FFF7A5FC7F1C039E3046FFF76C
:10106000B1F88742EDD3049E306800E0039845490B
:101070000C22FFF781F837683878002813D0002653
:101080000497BF5D28462146FFF73CFC0028F9D0B5
:1010900028463946FFF785FC761C049F3846FFF743
:1010A00091F88642EDD3384800BF00BF00BF00BFB3
:1010B00000BF00BF00BF00BF00BF00BF00BF00BF38
:1010C00000BF00BF00BF00BF00BF00BF00BF00BF28
:1010D00000BF00BF00BF00BF00BF00BF00BF00BF18
:1010E00000BF00BF00BF00BF00BF00BF00BF00BF08
:1010F00000BF00BF00BF00BF00BF00BF00BF00BFF8
:1011000000BF00BF00BF00BF00BF00BF00BF00BFE7
:1011100000BF00BF00BF00BF00BF00BF00BF00BFD7
:1011200000BF00BF00BF00BF00BF00BF4238BBD13F
:10113000029805B0F0BDC046BF20000041542B51BD
:1011400053534C4346473D302C302C22636163653A
:101150007274220000000440BC2000003000002017
:10116000D10700008C2C0000A4040000308E320057
:10117000A10F0000B0200000102100007820000026
:10118000D6200000802C0000E08DF901F0B585B07C
:1011900005468068FDA11C22FEF7EEFF2868AA68BC
:1011A000F94900F023FE01200190040204952E6805
:1011B0003078FD4D002813D000270396F65D2846B1
:1011C0002146FFF79FFB0028F9D028463146FFF75C
:1011D000E8FB7F1C039E3046FEF7F4FF8742EDD309
:1011E0000020049EB0810146326989B25054B18911
:1011F000491CB1818AB2632A18D8336900219954F5
:10120000B289521CB28192B2632A0FD833699954C1
:10121000B289521CB28192B2632A07D833699954B9
:10122000B189491CB1818AB2642ADDD30027B78114
:10123000B068FFF72FFBDD48FFF72CFBDC4908689F
:10124000706008687168401ADA4EB0420ED2039797
:10125000049F3846FFF7EAFAD5490A687968511AB7
:10126000B142F6D30290049E039F02E00420029054
:10127000049E31693068FEF7ACFF3668307800288C
:1012800012D00396F65D28462146FFF73BFB002867
:10129000F9D028463146FFF784FB7F1C039E304679
:1012A000FEF790FF8742EDD30020049EB0810146F7
:1012B000326989B25054B189491CB1818AB2632A1A
:1012C00018D8336900219954B289521CB28192B264
:1012D000632A0FD833699954B289521CB28192B2F1
:1012E000632A07D833699954B189491CB1818AB2FC
:1012F000642ADDD300200090B081B068AE49AF4AC7
:10130000FEF73AFFB068FFF7C5FAA848FFF7C2FA40
:10131000AB4800BF00BF00BF00BF00BF00BF00BFA1
:1013200000BF00BF00BF00BF00BF00BF00BF00BFC5
:1013300000BF00BF00BF00BF00BF00BF00BF00BFB5
:1013400000BF00BF00BF00BF00BF00BF00BF00BFA5
:1013500000BF00BF00BF00BF00BF00BF00BF00BF95
:1013600000BF00BF00BF00BF00BF00BF00BF00BF85
:1013700000BF00BF00BF00BF00BF00BF00BF00BF75
:1013800000BF00BF00BF00BF00BF00BF00BF00BF65
:1013900000BF00BF00BF4238BBD10198860730466E
:1013A0002146FFF7AFFA0028F9D01A213046FFF79F
:1013B000F8FA7F4B1868049E706018687168401ACC
:1013C000804FB8420BD230461E46FFF72FFA334605
:1013D000049E1A687168511AB942F4D302903269B6
:1013E0003068794900F002FD3668307800280098AE
:1013F00014D003960746365C28462146FFF782FA4A
:101400000028F9D028463146FFF7CBFA7F1C039E0F
:101410003046FEF7D7FE87423846EBD30020049EC5
:10142000B0810146326989B25054B189491CB181F9
:101430008AB2632A18D8336900219954B289521CA0
:10144000B28192B2632A0FD833699954B289521C7F
:10145000B28192B2632A07D833699954B189491C81
:10146000B1818AB2642ADDD30027B781306802993E
:10147000042904D849B28900554A525800E0534A19
:10148000544900F0B3FC306803900078002815D070
:10149000039EF65D28462146FFF734FA0028F9D06E
:1014A00028463146FFF77DFA7F1C039E3046FEF743
:1014B00089FE8742EDD3049E306800E003984649D8
:1014C0000C22FEF759FE37683878002813D0002622
:1014D0000497BF5D28462146FFF714FA0028F9D08B
:1014E00028463946FFF75DFA761C049F3846FEF71A
:1014F00069FE8642EDD3394800BF00BF00BF00BF80
:1015000000BF00BF00BF00BF00BF00BF00BF00BFE3
:1015100000BF00BF00BF00BF00BF00BF00BF00BFD3
:1015200000BF00BF00BF00BF00BF00BF00BF00BFC3
:1015300000BF00BF00BF00BF00BF00BF00BF00BFB3
:1015400000BF00BF00BF00BF00BF00BF00BF00BFA3
:1015500000BF00BF00BF00BF00BF00BF00BF00BF93
:1015600000BF00BF00BF00BF00BF00BF00BF00BF83
:1015700000BF00BF00BF00BF00BF00BF4238BBD1EB
:10158000029805B0F0BDC046BF20000041542B5169
:1015900053534C4346473D302C302C22636C6965D5
:1015A0006E7463657274220000000440BC20000069
:1015B00030000020D10700002C210000C5040000ED
:1015C000308E3200A10F0000B0200000102100007A
:1015D00078200000D6200000802C0000E08DF9016A
:1015E000F0B585B005468068FDA11B22FEF7C4FD5D
:1015F0002868AA68F94900F0F9FB0120019004026B
:1016000004952E683078FD4D002813D000270396EE
:10161000F65D28462146FFF775F90028F9D02846DF
:101620003146FFF7BEF97F1C039E3046FEF7CAFD28
:101630008742EDD30020049EB0810146326989B211
:101640005054B189491CB1818AB2632A18D83369D0
:1016500000219954B289521CB28192B2632A0FD8E8
:1016600033699954B289521CB28192B2632A07D865
:1016700033699954B189491CB1818AB2642ADDD396
:101680000027B781B068FFF705F9DD48FFF702F9D9
:10169000DC490868706008687168401ADA4EB04228
:1016A0000ED20397049F3846FFF7C0F8D5490A6861
:1016B0007968511AB142F6D30290049E039F02E06A
:1016C00004200290049E31693068FEF782FD36687E
:1016D0003078002812D00396F65D28462146FFF7A1
:1016E00011F90028F9D028463146FFF75AF97F1C36
:1016F000039E3046FEF766FD8742EDD30020049E30
:10170000B0810146326989B25054B189491CB18116
:101710008AB2632A18D8336900219954B289521CBD
:10172000B28192B2632A0FD833699954B289521C9C
:10173000B28192B2632A07D833699954B189491C9E
:10174000B1818AB2642ADDD300200090B081B068F4
:10175000AE49AF4AFEF710FDB068FFF79BF8A84806
:10176000FFF798F8AB4800BF00BF00BF00BF00BF45
:1017700000BF00BF00BF00BF00BF00BF00BF00BF71
:1017800000BF00BF00BF00BF00BF00BF00BF00BF61
:1017900000BF00BF00BF00BF00BF00BF00BF00BF51
:1017A00000BF00BF00BF00BF00BF00BF00BF00BF41
:1017B00000BF00BF00BF00BF00BF00BF00BF00BF31
:1017C00000BF00BF00BF00BF00BF00BF00BF00BF21
:1017D00000BF00BF00BF00BF00BF00BF00BF00BF11
:1017E00000BF00BF00BF00BF00BF4238BBD101989F
:1017F000860730462146FFF785F80028F9D01A21E0
:101800003046FFF7CEF87F4B1868049E706018686A
:101810007168401A804FB8420BD230461E46FFF71F
:1018200005F83346049E1A687168511AB942F4D318
:10183000029032693068794900F0D8FA3668307819
:101840000028009814D003960746365C28462146A7
:10185000FFF758F80028F9D028463146FFF7A1F8DD
:101860007F1C039E3046FEF7ADFC87423846EBD323
:101870000020049EB0810146326989B25054B1897A
:10188000491CB1818AB2632A18D83369002199545E
:10189000B289521CB28192B2632A0FD8336999542B
:1018A000B289521CB28192B2632A07D83369995423
:1018B000B189491CB1818AB2642ADDD30027B7817E
:1018C00030680299042904D849B28900554A52580F
:1018D00000E0534A544900F089FA306803900078D8
:1018E000002815D0039EF65D28462146FFF70AF82A
:1018F0000028F9D028463146FFF753F87F1C039E95
:101900003046FEF75FFC8742EDD3049E306800E06E
:10191000039846490C22FEF72FFC376838780028D8
:1019200013D000260497BF5D28462146FEF7EAFF44
:101930000028F9D028463946FFF733F8761C049F73
:101940003846FEF73FFC8642EDD3394800BF00BF62
:1019500000BF00BF00BF00BF00BF00BF00BF00BF8F
:1019600000BF00BF00BF00BF00BF00BF00BF00BF7F
:1019700000BF00BF00BF00BF00BF00BF00BF00BF6F
:1019800000BF00BF00BF00BF00BF00BF00BF00BF5F
:1019900000BF00BF00BF00BF00BF00BF00BF00BF4F
:1019A00000BF00BF00BF00BF00BF00BF00BF00BF3F
:1019B00000BF00BF00BF00BF00BF00BF00BF00BF2F
:1019C00000BF00BF00BF00BF00BF00BF00BF00BF1F
:1019D0004238BBD1029805B0F0BDC046BF20000020
:1019E00041542B5153534C4346473D302C302C220D
:1019F000636C69656E746B657922000000000440B9
:101A0000BC20000030000020D1070000F4250000B9
:101A10008C060000308E3200A10F0000B0200000C4
:101A20001021000078200000D6200000802C00004B
:101A3000E08DF901F0B587B00290DC4800687D21A7
:101A4000C900FEF7CFFB401E010E0DD1D849D94A7F
:101A50005060D94803680B40032189075918016079
:101A6000002090600720106000242046FEF79CFDB7
:101A700001273846FEF798FD02252846FEF794FD1B
:101A80002046FEF7DDFD3846FEF7D0FD2846FEF77E
:101A9000D7FD7804112189023B46FEF7E1FC3E02A6
:101AA000C64831462246FEF76CFD80210625039587
:101AB00038462A46FEF7C8FB384631462A46FEF726
:101AC000C3FB069405964B20C0010490BC4D04A9AD
:101AD0002846FEF71DFF284621463A46FEF763FFDB
:101AE000284639463A46FEF75EFF38040190412108
:101AF00009023B46FEF7B4FCB24808210091224699
:101B0000FEF73FFD04212046039D2A46FEF79CFB7D
:101B1000204600992A46FEF797FB06940596E12099
:101B2000400200900490BD0704A92846FEF7F0FE8D
:101B3000284621463A46FEF736FF284639463A46B9
:101B4000FEF731FF2120410201983B46FEF788FC59
:101B5000202101919B482246FEF713FD10212046CB
:101B6000039D2A46FEF770FB204601992A46FEF7A0
:101B70006BFB0694059600980490934D04A92846A3
:101B8000FEF7C6FE284621463A46FEF70CFF2846D9
:101B900039463A46FEF707FF8C4800F037FA029FB5
:101BA00038600390002826D0884800F02FFAB860EB
:101BB000002869D0642000F029FA3861002800D19B
:101BC000ABE083A11522039F3846FEF7D5FA3F5DAF
:101BD00028463146FEF796FE0028F9D028463946B9
:101BE000FEF7DFFE641C039F3846FEF7EBFA8442E3
:101BF000EDD307B0F0BD7C4800BF00BF00BF00BF01
:101C000000BF00BF00BF00BF00BF00BF00BF00BFDC
:101C100000BF00BF00BF00BF00BF00BF00BF00BFCC
:101C200000BF00BF00BF00BF00BF00BF00BF00BFBC
:101C300000BF00BF00BF00BF00BF00BF00BF00BFAC
:101C400000BF00BF00BF00BF00BF00BF00BF00BF9C
:101C500000BF00BF00BF00BF00BF00BF00BF00BF8C
:101C600000BF00BF00BF00BF00BF00BF00BF00BF7C
:101C700000BF00BF00BF00BF00BF00BF4238BBD1E4
:101C80000020FEF7E7FCFEE7574800BF00BF00BF9B
:101C900000BF00BF00BF00BF00BF00BF00BF00BF4C
:101CA00000BF00BF00BF00BF00BF00BF00BF00BF3C
:101CB00000BF00BF00BF00BF00BF00BF00BF00BF2C
:101CC00000BF00BF00BF00BF00BF00BF00BF00BF1C
:101CD00000BF00BF00BF00BF00BF00BF00BF00BF0C
:101CE00000BF00BF00BF00BF00BF00BF00BF00BFFC
:101CF00000BF00BF00BF00BF00BF00BF00BF00BFEC
:101D000000BF00BF00BF00BF00BF00BF00BF423820
:101D1000BBD10020FEF79EFCFEE7334800BF00BFAA
:101D200000BF00BF00BF00BF00BF00BF00BF00BFBB
:101D300000BF00BF00BF00BF00BF00BF00BF00BFAB
:101D400000BF00BF00BF00BF00BF00BF00BF00BF9B
:101D500000BF00BF00BF00BF00BF00BF00BF00BF8B
:101D600000BF00BF00BF00BF00BF00BF00BF00BF7B
:101D700000BF00BF00BF00BF00BF00BF00BF00BF6B
:101D800000BF00BF00BF00BF00BF00BF00BF00BF5B
:101D900000BF00BF00BF00BF00BF00BF00BF00BF4B
:101DA0004238BBD10020FEF755FCFEE714000020AE
:101DB000FFFFFF0010E000E020ED00E000200B40FE
:101DC0000010004000000B4000000440A40600008A
:101DD0005365747570207375636365737366756C92
:101DE0006C79210A00000000308E32000FB410B56B
:101DF00004A9074B02AA039800F01CF8044602A9A4
:101E0000002000F0FDF8204610BC08BC04B01847C4
:101E10000120000002E008C8121F08C1002AFAD100
:101E200070477047002001E001C1121F002AFBD15A
:101E300070470000FFB58DB00F460546002606E04E
:101E400025280AD0109A0F9990476D1C761C287887
:101E50000028F5D1304611B0F0BD00240121674AB9
:101E6000009400E004436D1C2B780846203B98400A
:101E70001042F7D128782E2815D104200443687821
:101E80006D1C2A280AD101CF6D1C00900BE000992F
:101E90000A225143303940186D1C009028780146C1
:101EA00030390929F3D92878692843D006DC00287D
:101EB000D0D063280BD0642804D13BE073280FD026
:101EC00075284CD0109A0F999047761C94E038787A
:101ED000694608720020487202A80190012003E0C0
:101EE000386801900020C0433F1D61070CD50024D5
:101EF00000E0641C00998C420FDA8442F9DB0199FE
:101F0000095D0029F5D108E0002400E0641C84424A
:101F1000FCDB0199095D0029F8D1361907E0019829
:101F200001990078491C0191109A0F999047641EFD
:101F3000F5D261E00A20019001CF002802DA404288
:101F40002D2102E0210504D52B216A4611720121C1
:101F500003E0E10701D02021F7E70C9104E00A201B
:101F6000019001CF00210C910BA90B9108E0019980
:101F7000FEF738F90A460B993032491E0B910A7068
:101F80000028F4D10B9803A9081A203001906007AB
:101F900001D5009801E0012000900199884203DDFD
:101FA00001460198081A00E000200024009006E095
:101FB00002A8109A005D0F999047641C761C0C983B
:101FC0008442F5DB04E0109A30200F999047761C8C
:101FD0000099481E00900029F5DC08E00B980B9949
:101FE0000078491C0B91109A0F999047761C019923
:101FF000481E01900029F1DC6D1C28E7092801002A
:102000000A68531C0B60107070470000F0B50B306D
:10201000C108C900144F0026144A0FE003688B4220
:102020000BD38B4205D95C1A4318456830C3083B73
:1020300000E04368136002C004E0021D106800283D
:10204000ECD13046002803D13868002801D00020A8
:10205000F0BD064A06481060064A121AD208D2009D
:1020600044C001203860D7E70400002000000020B1
:102070003C0000203800002008210000F72000006C
:1020800023210000FD200000EF20000000000B4095
:1020900000200B4000400B4000600B4000800B40D4
:1020A0000000000001010104000108004000800060
:1020B00025730A0A000D0A0D0A004F4B0D0A000A8B
:1020C0003D3D3D2053454E44494E47203C25733EFF
:1020D000203D3D3D0A00436F6D6D616E6420737459
:1020E000617475733A2025730A00415445300055D8
:1020F0004E4B4E4F574E004552524F520050415298
:10210000414D4554455253005355434345535300A5
:10211000554E535550504F525445442053544154FA
:1021200055530054494D454F555400002D2D2D2D2C
:102130002D424547494E2043455254494649434163
:1021400054452D2D2D2D2D0A4D49494457544343B7
:10215000416B476741774942416749555348793355
:102160003630324A37457347443979753769784490
:10217000324E684557384D774451594A4B6F5A494A
:102180006876634E4151454C0A425141775454465A
:102190004C4D456B47413155454377784351573155
:1021A00068656D39754946646C596942545A584A94
:1021B0003261574E6C63794250505546745958708D
:1021C000766269356A623230670A5357356A4C69FC
:1021D000424D50564E6C59585230624755675531F2
:1021E00051395632467A61476C755A335276626974
:1021F0004244505656544D4234584454497A4D4402
:1022000049774F5441334D7A59790A4D466F5844B6
:102210005451354D54497A4D54497A4E546B314F8F
:10222000566F77486A45634D426F47413155454186
:102230007777545156645449456C76564342445A14
:10224000584A3061575A70593246300A5A544343FB
:10225000415349774451594A4B6F5A496876634E06
:1022600041514542425141446767455041444343CF
:1022700041516F4367674542414C72526753615306
:1022800049326A4F3671393130746A710A304956B1
:10229000376D7850795476546F712F2B6E7559497C
:1022A000627776775A61536570465A384349587455
:1022B00043645659526C764E63612F4848624461BC
:1022C0005070704E736A72304B566170510A3964A7
:1022D000324D7332502F544A6A4F6C4159415A5211
:1022E000454B705143584139744D68676F4E2F67A5
:1022F000362F6D4F354D72384230675A424B4F433F
:102300004879467976467944372F6D7257410A4DA0
:102310004B35457957366936557475577554435260
:1023200044534B583047555830786E3249763067B1
:1023300063736B666A3779534A4755574F46316B1B
:10234000704D4C7332614358717655652B6E710A2E
:10235000556A454A644F416B6D71646D367676718E
:1023600074584242786C4E623674544A73625632E4
:102370002F73553931734E45613169785430334983
:102380002B68794667434378636B46784E2B7264BB
:102390000A6D6F414756314D574F716372565667FC
:1023A00044784B687A374833324450643336676335
:1023B0004450313375327950564179366145612B3D
:1023C00068674A37304239626674583254374D7004
:1023D000390A484F63434177454141614E674D4655
:1023E0003477487759445652306A42426777466F8D
:1023F0004155346E547266484C4147696256427A80
:10240000762F4473374D6672525832384D774851A3
:1024100059440A5652304F4242594546505076462A
:102420006F495037745255344F79456A4F2B686A5B
:102430006D42416B79434E4D41774741315564457B
:102440007745422F7751434D414177446759445670
:102450005230500A4151482F424151444167654131
:102460004D413047435371475349623344514542CC
:102470004377554141344942415141783137496DA3
:102480002F4E5969514F7276365648784C2B646FEF
:102490006752696A0A566C6450595A5A5478725194
:1024A0003665484C5369593061585937302B344898
:1024B000773067624E7A673179514A684258766C54
:1024C00077596C4356786C2B7434397931304937ED
:1024D00075787551380A765454516A69644948547C
:1024E000566654514A4F532F36483156365441722E
:1024F00043734751614B6E4B6A3272324F6D79476D
:102500005873624F314350436A3638577A484D53B7
:102510006C663946536D0A336B34426C7767752F9E
:10252000715945524443517555315357394C7231A5
:10253000797652544D556F364358783836746C332B
:102540006D4D3442657833684530586D72667777E3
:102550006E5263386564350A384B6F32446A70597D
:10256000737A6B6F7143572B394E7A4F73643745CB
:10257000714973766E354675787945486B36467085
:10258000475469624B4E6B45676E4B7665736A3193
:102590006550347147796A580A4136685442494453
:1025A000576A446D3176766A4B446C746361534B61
:1025B000617554355433553649447A3872387A68DF
:1025C0005545574E704E4D5A79774D2B4B346A37DF
:1025D00035725758540A2D2D2D2D2D454E4420432C
:1025E000455254494649434154452D2D2D2D2D0A20
:1025F000000000002D2D2D2D2D424547494E205223
:1026000053412050524956415445204B45592D2D98
:102610002D2D2D0A4D4949456F77494241414B4384
:1026200041514541757447424A70496A614D37715D
:1026300072335853324F725168587562452F4A4F62
:10264000394F69722F366535676876432F426C7053
:102650004A366B560A6E77496865304A3156684784
:102660005738317872386364734E6F2B6D6B3279E3
:102670004F76517056716C44313359797A592F39EC
:102680004D6D4D36554267426C4551716C414A6300
:1026900044323079470A4367332B44722B59376BE6
:1026A0007976774853426B456F34496649584B38C1
:1026B000584950762B6174594177726B544A627154
:1026C0004C7053323561354D4A454E497066515A0A
:1026D0005266544766590A692F53427979522B50F2
:1026E000764A496B5A5259345857536B77757A5A10
:1026F0006F4A6571395237366570534D516C3034BD
:10270000435361703262712B2B71316345484755D9
:10271000317671314D6D780A7458622B7854335785
:1027200077305272574C465054636A364849574185
:10273000494C4679515845333674326167415A588D
:1027400055785936707974565741504571485073D1
:102750006666594D393366710A42774D2F58653791
:1027600062493955444C706F52723647416E76510A
:102770004831742B31665A5073796E30633577491E
:102780004441514142416F49424146715932773784
:102790002F633969523739486A0A533773534E4D9C
:1027A0006C6D35672F49524734556E385339624145
:1027B0004D697632354F5447614659777A586C6285
:1027C0004557793578507232715A6557657046466B
:1027D000747055706A50336E44690A6F435357578B
:1027E0006F563068464B4D4C6E4D305379695637B5
:1027F00047315651697546454D4F36326F337074C7
:102800007A6B6A785742624A436771312B4A48654E
:102810002B314B58393545626858500A4578484E37
:1028200039733273596873624F6850776B6E6535D0
:102830006C695838724C4536464C373657493477B0
:1028400041574F6436414B6B3069733232355362B6
:102850006A7250476142766F3959476F0A6B417906
:1028600062312F4951476844377248427473597234
:102870005073647A7850686D6F2B683448306649BD
:102880006734713073456854394F6D426D525A59EF
:102890004B613766744A4A3657707031440A4D4A64
:1028A000362B7362596F437331544273422F6C4A13
:1028B0004F707654474F50516A4C4D7377453251A3
:1028C000364E6974766D62774E31686F4E7A53502A
:1028D00041302B776B73554974566C7855460A41D5
:1028E00043623174544543675945413459356756FD
:1028F0007453596C4E444E767A374A7479654C7AE3
:102900006E396C64596D4633374D436F735134449F
:1029100065704F5966316B48753469413070480AAB
:1029200037506C7341342F5970384C5544626E6C7B
:10293000636F307738306F695874552F41794B4D3C
:10294000614A5851576338434335303165504C79AB
:102950002F4D4235704C597A4F6E466F354C374685
:102960000A5854354E7A2B497543653558564F6988
:102970006F314677493772797475796A5A506C535A
:10298000356D4F4A416D49594C30503532434D6C8D
:10299000723636622B70577343675945413141692E
:1029A000660A384E364563664E6D74723938764322
:1029B0004D50794A5A4D4E5659492F6C4D7A3044F4
:1029C000385341442F6244554F303967306F4F6E52
:1029D0004567324664526F57516C73524E524C45A4
:1029E0004B650A5A5344665876594E4269643557C6
:1029F000714A4D76614C694B383932775A6E566D53
:102A00005573514D39595076424F506D7649487043
:102A10005733707956736C595742424B50774A5A24
:102A2000716C650A5932623552636244656B624368
:102A30005A774543554C6D7454683538665A6F70F3
:102A40003549306A526C7A5153585543675942425E
:102A5000504A6536705853594869685439776F4BF6
:102A60006B6B4B4B0A634368644C5842742B653163
:102A7000365044786D4D653248772B305155526D44
:102A80002F54393272755A77334434532F534D646F
:102A9000695450454442376B76744C4A714D5530F9
:102AA00076542B2F430A564170563331796446567B
:102AB0005167376B752F4E4D4136466F534D6B370F
:102AC0003664346C7464453663587944672B6F52AE
:102AD00050624F4175556D43587850747355746307
:102AE00054586C564F300A31304F4E6D622B544B58
:102AF0002F58687072677A43544B2F6A774B42673E
:102B000043364B53686B44726F7959675859685A0A
:102B100038366633346F4775326D466E656D3839B9
:102B2000345742496F46640A67735A526B7A6E692A
:102B30007632363867426F6361485746567553633D
:102B40004F64662B4D326739492B706A46593742BC
:102B500051566A4D67513271332F762F794C424D61
:102B6000424E396C34344F4E0A4F397A72616A7A68
:102B7000335851684A724F51656C6F44654D4D38FA
:102B80002F4B77305770666F706B784E6D776D6432
:102B90006E6571704452572F556F5A3668414842DE
:102BA0004E553136775141726B0A756D3831416F30
:102BB0004742414A6F39574B454E6E50356749453C
:102BC000546D4336524841466D41594F6B546F52D4
:102BD0004B32376469644C2B576F6B4761315975C1
:102BE00063485669446B6665554C0A686D6D704F55
:102BF0003532392F545978564774506C68492B66D2
:102C000073307776343369413446446A4557557A90
:102C1000367542574A376E4C67722F352F52692FDF
:102C2000564D6B4C527339576933720A4862674D7F
:102C300045536E684D7A6A79396E6F525976707461
:102C400041617565363068367564754F4249316B40
:102C50002B587673547A4F7238765A5A785577399A
:102C60000A2D2D2D2D2D454E4420525341205052DA
:102C70004956415445204B45592D2D2D2D2D0A00E7
:102C80003D3D3D3D3D3D3D3D3D3D0A002D2D2D2D24
:102C90002D424547494E20434552544946494341F8
:102CA00054452D2D2D2D2D0A4D4949445154434352
:102CB00041696D674177494241674954426D796680
:102CC0007A356D2F6A416F3534764234696B506DB9
:102CD0006C6A5A62796A414E42676B71686B6947E8
:102CE00039773042415173460A414441354D517361
:102CF00077435159445651514745774A56557A457D
:102D0000504D4130474131554543684D475157314A
:102D100068656D39754D526B7746775944565151F8
:102D20004445784242625746360A62323467556DEE
:102D3000397664434244515341784D4234584454A7
:102D400045314D4455794E6A41774D4441774D4662
:102D50006F5844544D344D4445784E7A41774D4434
:102D600041774D466F774F54454C0A4D416B474173
:102D700031554542684D4356564D78447A414E424E
:102D8000674E5642416F54426B4674595870766292
:102D90006A455A4D4263474131554541784D51513D
:102DA000573168656D397549464A760A623351670D
:102DB000513045674D544343415349774451594A33
:102DC0004B6F5A496876634E4151454242514144E6
:102DD000676745504144434341516F4367674542EC
:102DE000414C4A346748484B654E586A0A6361391A
:102DF00048674642306657375931346832394A6C31
:102E00006F3931676859506C306841457672414975
:102E10007468744F675133704F737154514E726FB1
:102E200042766F3362534D6748467A5A4D0A394F9E
:102E300036494938632B367A663174526E345357AB
:102E4000697733746535646A6764595A366B2F6FD6
:102E500049327065564B5675524634666E39744227
:102E60006236644E71636D7A55354C2F71770A491D
:102E700046414762487251674C4B6D2B612F73522C
:102E8000786D5055446748334B4B484F566A3475FC
:102E90007457702B55686E4D4A62756C4868656250
:102EA000346D6A55634177686D6168525761360ABF
:102EB000564F756A77354835534E7A2F30656777A8
:102EC0004C583074644841313134676B393537457B
:102ED0005757363763346358386A4A474B4C68440F
:102EE0002B726364717371303870386B4469314C84
:102EF0000A39334663586D6E2F36705543797A69B7
:102F00004B726C4134623976374C5749627863634F
:102F100065564F46333447664944357948493959EF
:102F20002F5143422F494944456745772B4F7951EB
:102F30006D0A6A675375624A724971673043417717
:102F4000454141614E434D4541774477594456527E
:102F500030544151482F42415577417745422F7AAD
:102F6000414F42674E5648513842416638454241CA
:102F70004D430A41595977485159445652304F42AE
:102F8000425945464951597A495530374C774D6C2D
:102F90004A517543466D637837495154676F494DBF
:102FA000413047435371475349623344514542438B
:102FB0007755410A4134494241514359386A646165
:102FC000515A436847735632555367674E694D4FA0
:102FD0007275596F753672346C4B35497044422F97
:102FE000472F776B6A557530794B4758397262783D
:102FF000656E44490A5535504D43436A6A6D4358DE
:103000005049365435336948546649554A725536E5
:1030100061645472434332714A65485A4552786834
:103020006C624931426A6A742F6D737630746164E0
:1030300051317755730A4E2B6744533633705961BB
:10304000414362765879384D577937567533335046
:103050007155584865654536562F55713256387644
:1030600069544F39364C5846764B576C4A62594B27
:103070003855393076760A6F2F7566514A56744D39
:10308000565438517450485268386A72646B5053C1
:103090004843613258563463644679517A523162FA
:1030A0006C645A77674A634A6D41707A794D5A4623
:1030B0006F3649513658550A354D73492B794D5263
:1030C000512B68444B584A696F616C6458676A5564
:1030D0006B4B3634324D345577744256386F62320A
:1030E000784A4E4464325A68774C6E6F5164655822
:1030F00065474144626B70790A7271585266626F1B
:10310000516E6F5A734734713557545034363853B3
:1031100051767647350A2D2D2D2D2D454E442043D1
:10312000455254494649434154452D2D2D2D2D00DE
:1031300041542B5153534C4346473D302C302C22A5
:103140007365636C6576656C222C32006C3100000F
:103150000000002018000000141E00008431000050
:103160001800002020020000241E000000000000C3
:1031700000000000F7200000B5200000BA20000089
:04318000008793032E
:04000005000000C136
:00000001FF
