:020000040000FA
:1000000010020020C10000002107000001070000CD
:10001000FFFFFFFFFFFFFFFFFFFFFFFFFFFFFFFFF0
:10002000FFFFFFFFFFFFFFFFFFFFFFFF9D07000038
:10003000FFFFFFFFFFFFFFFF390700009F070000E2
:1000400035010000350100003501000035010000D8
:1000500035010000350100003501000035010000C8
:1000600035010000350100003501000035010000B8
:1000700035010000350100003501000035010000A8
:100080003501000035010000350100003501000098
:100090003501000035010000350100003501000088
:1000A0003501000035010000350100003501000078
:1000B0003501000035010000350100003501000068
:1000C0001D4880471D4880471D4800471D4801695D
:1000D000002908D14169002905D18169002902D18F
:1000E000C169002909D01848C1680901090D002912
:1000F0000ED005290CD006290AD0BFF34F8F134824
:100100001349016013491248C860BFF34F8FFEE7DF
:100110000E4801680E48884200D070470E480F49CB
:1001200001600A480E4901607047FEE7FEE7FEE7FE
:10013000FEE7FEE7FEE70000CD000000A10700009B
:100140006501000000030840800108400000002015
:100150000400FA0500ED00E0008108400100000005
:10016000000000000348854600F056F800480047AC
:10017000DD0900001002002070B50446002903D0FC
:1001800000202022012310E0002801D00020C043DD
:10019000C046C0460DE02546D5408D4205D30D46EC
:1001A0009540641B1D46954040191546521E002D72
:1001B000F1DC214670BDF0B51FB40646002082B0C8
:1001C00005464024019100901BE0019922460F460C
:1001D000304600F043F8049A059B801A994110D3E9
:1001E00010461946224600F029F8361A8F41019729
:1001F000224601200021009F00F020F838184D41D0
:1002000000902046641E0028DFDC019B00982946F0
:10021000324607B0F0BD0000064C0125064E05E051
:10022000E36807CC2B430C3C98471034B442F7D317
:10023000FFF79CFFEC1300000C14000010B5202AFF
:1002400004DB0146203A9140002010BD914020235C
:100250009C1A0346E3401943904010BD10B5202A74
:1002600004DB0846203AD040002110BD0B46D340A5
:10027000D0402024A21A91400843194610BD000026
:10028000F0B58EB0C0005C4BC4180F231802079065
:10029000180308901804099018050A9018060B9086
:1002A00018070C900E060D9452D0012008404542CC
:1002B0002F461F408807059000D5F0374807049067
:1002C00001D5079807430807039001D5089807430D
:1002D000C806029001D5099807438806019001D508
:1002E0000A9807434806009003D530460B9E3743D3
:1002F00006460696002E01D50C9E37430D9C2468B9
:10030000BC4317010598C6173E40154035431602F9
:100310000498C71737402F4315030398C6172E407C
:100320003E4315040298C7172F403743150501981F
:10033000C6172E403E4315060098C017284030438C
:100340001507069EF6172E40064326430D9C266091
:100350000E04300E41D0C805C7173B4088050690F3
:1003600000D5F0334805059001D5079803430805EB
:10037000079001D508980343C80408902FD4880437
:1003800031D4490433D4002E01D50C9D2B4365682C
:100390009D431301069CE4171C401740274313029A
:1003A000059CE4171C403C431303079FFF171F40A5
:1003B00027431304089CE4171C403C431305C01753
:1003C000184020431306C917194001431007F217BC
:1003D00002400A432A430D9842600EB0F0BD0998CE
:1003E00003438804CDD50A9D2B434904CBD50B9DEF
:1003F0002B43002EC9D4CAE72020024070B5410922
:100400008900234BC9180A6AD9691C46183C24681C
:1004100007240C405D68194614390968890501D420
:10042000002110E01968C900CE0F1A49F140002DD3
:1004300009D41D686D012D0F00D1102569431D6879
:100440006D02AD0FE940641E062C09D87C44247966
:100450006400A7440C03030505070A000D4906E0E4
:10046000002104E00121C90301E07D2109021F24CC
:1004700004400325A5402A40E2402E2800D1921CCA
:100480009868052800D30520C140D140084670BDBA
:100490001880084000127A0070B50C4C2568002BBB
:1004A00001D0054300E08543A668E0682560002B85
:1004B00001D00E4300E08E43A660002B02D0104313
:1004C000E06070BD9043E06070BDC046248008408D
:1004D000002A03D002680A430260704702688A4318
:1004E00002607047F0B500230E251C4603E0090AA0
:1004F00010352E2D5AD0CE070ED18E0716D44E07AA
:100500001ED40E0726D4CE062ED48E0635D44E0623
:100510003CD40E06EBD542E02E460E3E0327B740F4
:100520003B431746B7403C438E07E8D52E460C3E6A
:100530000327B7403B431746B7403C434E07E0D53F
:100540002E460A3E0327B7403B431746B7403C437D
:100550000E07D8D52E46083E0327B7403B43174623
:10056000B7403C43CE06D0D5AE1F0327B7403B4330
:100570001746B7403C438E06C9D52E1F0327B74008
:100580003B431746B7403C434E06C2D5AE1E032739
:10059000B7403B431746B7403C430E06A7D503265A
:1005A000AE4033431646AE403443A0E74169994319
:1005B0004161416921434161F0BDB0B58468254680
:1005C0008D43C368012A04D08B43002A04D10C4315
:1005D00003E00B432C4600E02C468460C360B0BDB2
:1005E000F0B581B00E4621204102002501242846A5
:1005F0002A462346FFF750FF1021062728463A4691
:10060000FFF73EFE202128463A46FFF739FEE64F27
:100610003846314600F088F938462946224600F02F
:10062000CCF938462146224600F0C7F901B0F0BDAA
:1006300070B582B0064668460022828000922E493C
:100640008D5D01244455017821404378DB079B0FE1
:1006500059188378DB075B0FC918C078C007000FF3
:1006600008180199C907C90E40180004A1032346C0
:10067000FFF712FF0E48825D70001E490E5A284691
:100680003146FFF7FDFDA8001C490D586E6202229D
:1006900028463146FFF791FF284631462246FFF7AC
:1006A00021FF284631462246FFF712FF02B070BDF7
:1006B000E013000041000F4A515A0F4A105C8000BD
:1006C0000E4A10584162704741000A4A515A0A4A7C
:1006D000105C8000094A1058816270474100054A49
:1006E000515A054A105C8000044A1058026A4A4078
:1006F00002627047E6130000E3130000C813000015
:1007000006480168002908D10168002905D101685F
:10071000002902D101680029F3D0704708000020A9
:1007200070470000024A0A400243024802607047D4
:1007300080FFFF1F08ED00E0704780B584B0002007
:100740000390012109020291E1214902019101A9CD
:10075000FFF746FF04B080BD10B5934C2021204622
:1007600000F0DCF80028F9D0204600F023F910BD95
:1007700009490A46103AC3B21360012212020B68FB
:10078000134208D10B68134205D10B68134202D102
:100790000B681342F3D07047100004407047704755
:1007A000F0B586B059481021059101605849C86AD2
:1007B000402203921043C86256480268272A08D094
:1007C0000268272A05D00268272A02D00268272A51
:1007D000F3D10324A0020A6A82430A620122D002F2
:1007E0000B6803430B604868000708D4486800079B
:1007F00005D44868000702D448680007F3D50868A4
:10080000049420430423029398430860086B072450
:10081000204003280BD0086B2040032807D0086B2A
:100820002040032803D0086B20400328EED13A4B28
:100830001868104306250195A84318600020009011
:10084000C86157020868B84308601302081F0568AA
:100850001D4305600D680826B5430D6005683D43DE
:10086000056095020E682E430E604D686D0708D432
:100870004D686D0705D44D686D0702D44D686D074E
:10088000F3D5CD6A039EB543CD620F25ED054D61CD
:1008900015074E692E434E6105689D430560086843
:1008A000384308604868800708D44868800705D442
:1008B0004868800702D448688007F3D5164D286839
:1008C000049B1843029B984328600098C8610868FD
:1008D0001043019B98430860086B204001280BD00F
:1008E000086B2040012807D0086B2040012803D066
:1008F000086B20400128EFD128680599084328603B
:10090000100329680143296006B0F0BD0C8108403E
:100910000480084008A10640000208400069084021
:10092000411E884170470000B0B50D46044640683E
:1009300019490140E8880843A988014328890843E8
:10094000698901436160002014498C420BDC01215C
:1009500089078C4212D015498C4211D014498C421F
:1009600015D1082011E00E498C420BD00D498C4264
:100970000AD00D498C420AD11A2006E0182004E062
:100980001C2002E00A2000E01E20FFF737FD296846
:10099000FFF7F2FB6062B0BDFCE0FFFFFFFF03402A
:1009A00000200440001004400000044000100040FB
:1009B00000200040006880B2704710238B40002A5E
:1009C00003D04168194341607047416899434160D1
:1009D000704780B5FFF7CCFE80BD000000242046A4
:1009E0002146FFF79FFE4F200102012520462246A7
:1009F0002B46FFF751FDFFF7A0FE2046FFF718FE3C
:100A00002846FFF715FE02263046FFF711FE204666
:100A1000FFF75AFE2846FFF74DFE3046FFF754FE1B
:100A2000014D284602E0C046807BE1FF00BF00BFC9
:100A300000BF00BF00BF00BF00BF00BF00BF00BFBE
:100A400000BF00BF00BF00BF00BF00BF00BF00BFAE
:100A500000BF00BF00BF00BF00BF00BF00BF00BF9E
:100A600000BF00BF00BF00BF00BF00BF00BF00BF8E
:100A700000BF00BF00BF00BF00BF00BF00BF00BF7E
:100A800000BF00BF00BF00BF00BF00BF00BF00BF6E
:100A900000BF00BF00BF00BF00BF00BF00BF00BF5E
:100AA00000BF00BF00BF00BF00BF00BF4030BDD1CE
:100AB0000020FFF713FE0120FFF710FE0220FFF7D2
:100AC0000DFE284600BF00BF00BF00BF00BF00BF33
:100AD00000BF00BF00BF00BF00BF00BF00BF00BF1E
:100AE00000BF00BF00BF00BF00BF00BF00BF00BF0E
:100AF00000BF00BF00BF00BF00BF00BF00BF00BFFE
:100B000000BF00BF00BF00BF00BF00BF00BF00BFED
:100B100000BF00BF00BF00BF00BF00BF00BF00BFDD
:100B200000BF00BF00BF00BF00BF00BF00BF00BFCD
:100B300000BF00BF00BF00BF00BF00BF00BF00BFBD
:100B400000BF00BF4030BDD10020FFF7C7FD01202E
:100B5000FFF7C4FD0220FFF7C1FD284600BF00BF1C
:100B600000BF00BF00BF00BF00BF00BF00BF00BF8D
:100B700000BF00BF00BF00BF00BF00BF00BF00BF7D
:100B800000BF00BF00BF00BF00BF00BF00BF00BF6D
:100B900000BF00BF00BF00BF00BF00BF00BF00BF5D
:100BA00000BF00BF00BF00BF00BF00BF00BF00BF4D
:100BB00000BF00BF00BF00BF00BF00BF00BF00BF3D
:100BC00000BF00BF00BF00BF00BF00BF00BF00BF2D
:100BD00000BF00BF00BF00BF00BF00BF4030BDD19D
:100BE0000020FFF77BFD0120FFF778FD0220FFF7D3
:100BF00075FD284600BF00BF00BF00BF00BF00BF9B
:100C000000BF00BF00BF00BF00BF00BF00BF00BFEC
:100C100000BF00BF00BF00BF00BF00BF00BF00BFDC
:100C200000BF00BF00BF00BF00BF00BF00BF00BFCC
:100C300000BF00BF00BF00BF00BF00BF00BF00BFBC
:100C400000BF00BF00BF00BF00BF00BF00BF00BFAC
:100C500000BF00BF00BF00BF00BF00BF00BF00BF9C
:100C600000BF00BF00BF00BF00BF00BF00BF00BF8C
:100C700000BF00BF4030BDD10020FFF72FFD012095
:100C8000FFF72CFD0220FFF729FD284600BF00BF1B
:100C900000BF00BF00BF00BF00BF00BF00BF00BF5C
:100CA00000BF00BF00BF00BF00BF00BF00BF00BF4C
:100CB00000BF00BF00BF00BF00BF00BF00BF00BF3C
:100CC00000BF00BF00BF00BF00BF00BF00BF00BF2C
:100CD00000BF00BF00BF00BF00BF00BF00BF00BF1C
:100CE00000BF00BF00BF00BF00BF00BF00BF00BF0C
:100CF00000BF00BF00BF00BF00BF00BF00BF00BFFC
:100D000000BF00BF00BF00BF00BF00BF4030BDD16B
:100D10000020FFF7E3FC0120FFF7E0FC0220FFF7D3
:100D2000DDFC284600BF00BF00BF00BF00BF00BF02
:100D300000BF00BF00BF00BF00BF00BF00BF00BFBB
:100D400000BF00BF00BF00BF00BF00BF00BF00BFAB
:100D500000BF00BF00BF00BF00BF00BF00BF00BF9B
:100D600000BF00BF00BF00BF00BF00BF00BF00BF8B
:100D700000BF00BF00BF00BF00BF00BF00BF00BF7B
:100D800000BF00BF00BF00BF00BF00BF00BF00BF6B
:100D900000BF00BF00BF00BF00BF00BF00BF00BF5B
:100DA00000BF00BF4030BDD10020FFF797FC0120FD
:100DB000FFF794FC0220FFF791FC284600BF00BF1C
:100DC00000BF00BF00BF00BF00BF00BF00BF00BF2B
:100DD00000BF00BF00BF00BF00BF00BF00BF00BF1B
:100DE00000BF00BF00BF00BF00BF00BF00BF00BF0B
:100DF00000BF00BF00BF00BF00BF00BF00BF00BFFB
:100E000000BF00BF00BF00BF00BF00BF00BF00BFEA
:100E100000BF00BF00BF00BF00BF00BF00BF00BFDA
:100E200000BF00BF00BF00BF00BF00BF00BF00BFCA
:100E300000BF00BF00BF00BF00BF00BF4030BDD13A
:100E40000020FFF74BFC0120FFF748FC0220FFF7D2
:100E500045FC284600BF00BF00BF00BF00BF00BF69
:100E600000BF00BF00BF00BF00BF00BF00BF00BF8A
:100E700000BF00BF00BF00BF00BF00BF00BF00BF7A
:100E800000BF00BF00BF00BF00BF00BF00BF00BF6A
:100E900000BF00BF00BF00BF00BF00BF00BF00BF5A
:100EA00000BF00BF00BF00BF00BF00BF00BF00BF4A
:100EB00000BF00BF00BF00BF00BF00BF00BF00BF3A
:100EC00000BF00BF00BF00BF00BF00BF00BF00BF2A
:100ED00000BF00BF4030BDD10020FFF7FFFB012065
:100EE000FFF7FCFB0220FFF7F9FB284600BF00BF1D
:100EF00000BF00BF00BF00BF00BF00BF00BF00BFFA
:100F000000BF00BF00BF00BF00BF00BF00BF00BFE9
:100F100000BF00BF00BF00BF00BF00BF00BF00BFD9
:100F200000BF00BF00BF00BF00BF00BF00BF00BFC9
:100F300000BF00BF00BF00BF00BF00BF00BF00BFB9
:100F400000BF00BF00BF00BF00BF00BF00BF00BFA9
:100F500000BF00BF00BF00BF00BF00BF00BF00BF99
:100F600000BF00BF00BF00BF00BF00BF4030BDD109
:100F700000242046FFF7B2FB0120FFF7AFFB022061
:100F8000FFF7ACFB00BF00BF00BF00BF00BF00BF4A
:100F900000BF00BF00BF00BF00BF00BF00BF00BF59
:100FA00000BF00BF00BF00BF00BF00BF00BF00BF49
:100FB00000BF00BF00BF00BF00BF00BF00BF00BF39
:100FC00000BF00BF00BF00BF00BF00BF00BF00BF29
:100FD00000BF00BF00BF00BF00BF00BF00BF00BF19
:100FE00000BF00BF00BF00BF00BF00BF00BF00BF09
:100FF00000BF00BF00BF00BF00BF00BF00BF00BFF9
:1010000000BF00BF4035BDD12046FFF767FB012080
:10101000FFF764FB0220FFF761FB0FA5284621467E
:1010200000F044F8641C642CF8D110A417A52046E5
:1010300000F03CF8FFF790FB014628460A4600F016
:1010400035F80020FFF74AFB0120FFF747FB02209D
:10105000FFF744FBEBE7C04648656C6C6F20576FA9
:10106000726C64212025640D0A000000506C6561DB
:10107000736520696E707574206B657920666F7278
:10108000207072696E74662E2E2E2E000D0A596F16
:10109000757220696E7075742069732025635B30EA
:1010A0007825785D0D0A0D0A000000000FB410B518
:1010B00003A9044B044A029800F018F810BC08BCBD
:1010C00004B01847D30900000000002002E008C85F
:1010D000121F08C1002AFAD170477047002001E0B2
:1010E00001C1121F002AFBD170470000FFB58FB06D
:1010F0000F460446002606E025280AD0129A1199C8
:101100009047641C761C20780028F5D1304613B037
:10111000F0BD00250121A14A009500E00543641CB3
:1011200023780846203B98401042F7D120782E289B
:1011300015D1042005436078641C2A280AD101CF08
:10114000641C00900BE000990A225143303940188A
:10115000641C00902078014630390929F3D92078A1
:101160006C280ED004DC4C2813D06A2812D104E07D
:1011700074280ED07A280DD10BE0012040050543DC
:1011800007E00121090562780D43824201D16D1803
:10119000641C641C2078864669284AD008DC002834
:1011A000B4D058286DD0632810D0642808D140E00E
:1011B00070286BD0732812D0752860D0782860D042
:1011C000129A704611999047761CE5E03878694686
:1011D00008720020487202A80190012003E03868DC
:1011E00001900020C0433F1D69070CD5002500E099
:1011F0006D1C00998D420FDA8542F9DB0199495D3A
:101200000029F5D108E0002500E06D1C8542FCDBDB
:101210000199495D0029F8D1761907E001980199F3
:101220000078491C0191129A119990476D1EF5D2D0
:10123000B2E00A20029000216802400F03910228C8
:101240000CD001CFC117844600290DDA624608464A
:1012500052420021814194462D2008E0FF1DFF08E5
:10126000FF0003CF8446EFE7280504D52B206A460C
:10127000107401203CE0E8073AD02020F7E70A206C
:1012800000E0102000210391029007E0102002905E
:101290000021042005430820039100906802400FBC
:1012A000022810D001CF0021844600200D9028078D
:1012B0001FD5704670280CD0029A1020039B424024
:1012C0001A430CD015E0FF1DFF08FF0003CF844632
:1012D000EBE740206A46107401200D900CE0604658
:1012E000084306D030206A461074704650740220BD
:1012F0000D907046582804D029A001900DA80E909A
:101300000DE02CA0F9E76046039B029AFEF753FF1D
:10131000019B84469B5C0E9A521E0E92137060468F
:101320000843F0D10E9805A9081A203001906807EB
:1013300001D5009801E0012000900199884203DD69
:1013400001460198081A00E000200025009006E000
:1013500004A8129A405D119990476D1C761C0D9857
:101360008542F5DB04E0129A302011999047761CF3
:101370000099481E00900029F5DC08E00E980E99AF
:101380000078491C0E91129A11999047761C019988
:10139000481E01900029F1DC641CB4E60928010014
:1013A00030313233343536373839616263646566DB
:1013B000000000003031323334353637383941429D
:1013C000434445460000000000000B4000200B4055
:1013D00000400B4000600B4000800B40000000000C
:1013E0000101010400010800400080000C1400000D
:1013F0000000002004000000CC10000010140000C9
:101400000800002008020000DC10000000000000BE
:04000005000000C136
:00000001FF
